{"abi":[{"type":"constructor","inputs":[{"name":"_blockHeight","type":"uint256","internalType":"uint256"},{"name":"_blockHash","type":"bytes32","internalType":"bytes32"},{"name":"_blockTime","type":"uint256","internalType":"uint256"},{"name":"_expectedTarget","type":"uint256","internalType":"uint256"},{"name":"_isTestnet","type":"bool","internalType":"bool"}],"stateMutability":"nonpayable"},{"type":"function","name":"getBlockHash","inputs":[{"name":"number","type":"uint256","internalType":"uint256"}],"outputs":[{"name":"","type":"bytes32","internalType":"bytes32"}],"stateMutability":"view"},{"type":"function","name":"getLatestBlockHeight","inputs":[],"outputs":[{"name":"","type":"uint256","internalType":"uint256"}],"stateMutability":"view"},{"type":"function","name":"getLatestBlockTime","inputs":[],"outputs":[{"name":"","type":"uint256","internalType":"uint256"}],"stateMutability":"view"},{"type":"function","name":"getTarget","inputs":[{"name":"bits","type":"bytes32","internalType":"bytes32"}],"outputs":[{"name":"","type":"uint256","internalType":"uint256"}],"stateMutability":"pure"},{"type":"function","name":"isTestnet","inputs":[],"outputs":[{"name":"","type":"bool","internalType":"bool"}],"stateMutability":"view"},{"type":"function","name":"longestReorg","inputs":[],"outputs":[{"name":"","type":"uint256","internalType":"uint256"}],"stateMutability":"view"},{"type":"function","name":"periodToTarget","inputs":[{"name":"","type":"uint256","internalType":"uint256"}],"outputs":[{"name":"","type":"uint256","internalType":"uint256"}],"stateMutability":"view"},{"type":"function","name":"submit","inputs":[{"name":"blockHeight","type":"uint256","internalType":"uint256"},{"name":"blockHeaders","type":"bytes","internalType":"bytes"}],"outputs":[],"stateMutability":"nonpayable"},{"type":"event","name":"NewTip","inputs":[{"name":"blockHeight","type":"uint256","indexed":false,"internalType":"uint256"},{"name":"blockTime","type":"uint256","indexed":false,"internalType":"uint256"},{"name":"blockHash","type":"bytes32","indexed":false,"internalType":"bytes32"}],"anonymous":false},{"type":"event","name":"NewTotalDifficultySinceRetarget","inputs":[{"name":"blockHeight","type":"uint256","indexed":false,"internalType":"uint256"},{"name":"totalDifficulty","type":"uint256","indexed":false,"internalType":"uint256"},{"name":"newDifficultyBits","type":"uint32","indexed":false,"internalType":"uint32"}],"anonymous":false},{"type":"event","name":"Reorg","inputs":[{"name":"count","type":"uint256","indexed":false,"internalType":"uint256"},{"name":"oldTip","type":"bytes32","indexed":false,"internalType":"bytes32"},{"name":"newTip","type":"bytes32","indexed":false,"internalType":"bytes32"}],"anonymous":false}],"bytecode":{"object":"0x60a060405234801561001057600080fd5b50604051610f69380380610f6983398101604081905261002f91610079565b6000858152600260205260408120859055858155600184905582906003906100596107e0896100cb565b81526020810191909152604001600020551515608052506100ed92505050565b600080600080600060a0868803121561009157600080fd5b85519450602086015193506040860151925060608601519150608086015180151581146100bd57600080fd5b809150509295509295909350565b6000826100e857634e487b7160e01b600052601260045260246000fd5b500490565b608051610e546101156000396000818160d601528181610ae40152610b730152610e546000f3fe608060405234801561001057600080fd5b50600436106100885760003560e01c8063a9c2d7ab1161005b578063a9c2d7ab14610108578063d1a2eab21461011b578063e875aa5d14610130578063ee82ac5e1461013857600080fd5b80630d2b28601461008d57806332c25832146100c057806376e92c84146100c857806392108c86146100d1575b600080fd5b6100ad61009b366004610bf9565b60036020526000908152604090205481565b6040519081526020015b60405180910390f35b6001546100ad565b6100ad60045481565b6100f87f000000000000000000000000000000000000000000000000000000000000000081565b60405190151581526020016100b7565b6100ad610116366004610bf9565b610158565b61012e610129366004610c12565b61019a565b005b6000546100ad565b6100ad610146366004610bf9565b60009081526002602052604090205490565b6000600382811a90600284901a600890811b600186901a17901b84841a179083906101839084610ca4565b61018e906008610cb7565b9190911b949350505050565b60006101a7605083610ce4565b9050816101b5826050610cb7565b146101fd5760405162461bcd60e51b81526020600482015260136024820152720eee4dedcce40d0cac2c8cae440d8cadccee8d606b1b60448201526064015b60405180910390fd5b6000811161024d5760405162461bcd60e51b815260206004820152601e60248201527f6d757374207375626d6974206174206c65617374206f6e6520626c6f636b000060448201526064016101f4565b60006107e060005461025f9190610ce4565b90506000600161026f8488610cf8565b6102799190610ca4565b905060006102896107e083610ce4565b9050828110156102d35760405162461bcd60e51b81526020600482015260156024820152741bdb1908191a59999a58dd5b1d1e481c195c9a5bd9605a1b60448201526064016101f4565b60006107e06102e360018a610ca4565b6102ed9190610ce4565b905060008183111561033b57610304826001610cf8565b831461031257610312610d0b565b84830361032c576103258560005461069c565b905061033b565b81851461033b5761033b610d0b565b6000805481526002602052604081205490805b888110156103b3576000610362828e610cf8565b905061039e818d8d610375866050610cb7565b90610381876001610cf8565b61038c906050610cb7565b9261039993929190610d21565b610714565b6103a89084610cf8565b92505060010161034e565b5083851115610511573660008b8b6103cc60018d610ca4565b6103d7906050610cb7565b6103e2928290610d21565b909250905060006104296103fa604c60488587610d21565b61040391610d4b565b60d881901c63ff00ff001662ff00ff60e89290921c9190911617601081811b91901c1790565b90506000610437898b61069c565b90508681116104885760405162461bcd60e51b815260206004820152601d60248201527f696e73756666696369656e7420746f74616c20646966666963756c747900000060448201526064016101f4565b60006104958b6001610cf8565b90505b60005481116104c257600081815260026020526040812055806104ba81610d7b565b915050610498565b50604080518b81526020810183905263ffffffff84168183015290517f452ea9c9e4985cb8cc7199131fd292d600dae30f407e749b6ca7e7f4c7690cf79181900360600190a150505050610580565b86851461052057610520610d0b565b83851461052f5761052f610d0b565b60005486116105805760405162461bcd60e51b815260206004820152601960248201527f696e73756666696369656e7420636861696e206c656e6774680000000000000060448201526064016101f4565b6000868155610590600c8b610ca4565b905060008b828c6105a2826004610cf8565b926105af93929190610d21565b6105b891610d4b565b60e01c90506105e581600881811c62ff00ff1663ff00ff009290911b9190911617601081811c91901b1790565b63ffffffff16600155600088815260026020526040812054600154604080518c8152602081019290925281018290529091507f11cedc7f83a9a6f5228b8fcd3c3c0ae686a51e2e04ea46923e3491a32a4bbaa89060600160405180910390a1831561068c5760408051858152602081018790529081018290527fea952b3dfe43a8e680ea58302c72429cd78ef0537abeaf75797ef9bb0496cefc9060600160405180910390a15b5050505050505050505050505050565b600082815260036020526040812054816106b882600019610ce4565b905060006106c8866107e0610cb7565b6106d29086610ca4565b6106dd906001610cf8565b9050600181101580156106f257506107e08111155b6106fe576106fe610d0b565b6107088282610cb7565b93505050505b92915050565b60006050821461072657610726610d0b565b6000610928600280868660405161073e929190610d94565b602060405180830381855afa15801561075b573d6000803e3d6000fd5b5050506040513d601f19601f8201168201806040525081019061077e9190610da4565b60405160200161079091815260200190565b60408051601f19818403018152908290526107aa91610dbd565b602060405180830381855afa1580156107c7573d6000803e3d6000fd5b5050506040513d601f19601f820116820180604052508101906107ea9190610da4565b7bffffffff000000000000000000000000ffffffff00000000000000007eff000000ff000000ff000000ff000000ff000000ff000000ff000000ff0000600883811c9182167fff000000ff000000ff000000ff000000ff000000ff000000ff000000ff0000009490911b93841617601090811c7cff000000ff000000ff000000ff000000ff000000ff000000ff000000ff9092167dff000000ff000000ff000000ff000000ff000000ff000000ff000000ff009094169390931790921b91909117602081811c9283167fffffffff000000000000000000000000ffffffff0000000000000000000000009290911b91821617604090811c73ffffffff000000000000000000000000ffffffff90931677ffffffff000000000000000000000000ffffffff0000000090921691909117901b17608081811c91901b1790565b60008681526002602052604090205490915081811580159061094a5750808214155b1561095457600193505b600087815260026020526040812082905561097f61097660246004898b610d21565b6107ea91610dec565b90506002600061099060018b610ca4565b81526020019081526020016000205481146109da5760405162461bcd60e51b815260206004820152600a602482015269189859081c185c995b9d60b21b60448201526064016101f4565b80610a275760405162461bcd60e51b815260206004820152601e60248201527f706172656e7420626c6f636b206e6f7420796574207375626d6974746564000060448201526064016101f4565b6000610a37604c6048898b610d21565b610a4091610dec565b90506000610a4d82610158565b9050808610610a9e5760405162461bcd60e51b815260206004820152601760248201527f626c6f636b20686173682061626f76652074617267657400000000000000000060448201526064016101f4565b6000610aac6107e08c610ce4565b9050610aba6107e08c610e0a565b600003610b71576000600381610ad1600185610ca4565b81526020019081526020016000205490507f0000000000000000000000000000000000000000000000000000000000000000610b5a5780600284901c10610b5a5760405162461bcd60e51b815260206004820152601860248201527f3c32352520646966666963756c7479207265746172676574000000000000000060448201526064016101f4565b506000818152600360205260409020829055610beb565b7f0000000000000000000000000000000000000000000000000000000000000000610beb576000818152600360205260409020548214610beb5760405162461bcd60e51b815260206004820152601560248201527477726f6e6720646966666963756c7479206269747360581b60448201526064016101f4565b505050505050509392505050565b600060208284031215610c0b57600080fd5b5035919050565b600080600060408486031215610c2757600080fd5b83359250602084013567ffffffffffffffff80821115610c4657600080fd5b818601915086601f830112610c5a57600080fd5b813581811115610c6957600080fd5b876020828501011115610c7b57600080fd5b6020830194508093505050509250925092565b634e487b7160e01b600052601160045260246000fd5b8181038181111561070e5761070e610c8e565b808202811582820484141761070e5761070e610c8e565b634e487b7160e01b600052601260045260246000fd5b600082610cf357610cf3610cce565b500490565b8082018082111561070e5761070e610c8e565b634e487b7160e01b600052600160045260246000fd5b60008085851115610d3157600080fd5b83861115610d3e57600080fd5b5050820193919092039150565b6001600160e01b03198135818116916004851015610d735780818660040360031b1b83161692505b505092915050565b600060018201610d8d57610d8d610c8e565b5060010190565b8183823760009101908152919050565b600060208284031215610db657600080fd5b5051919050565b6000825160005b81811015610dde5760208186018101518583015201610dc4565b506000920191825250919050565b8035602083101561070e57600019602084900360031b1b1692915050565b600082610e1957610e19610cce565b50069056fea264697066735822122025398ffccf88435e46e766074527439928870190fdc9077969c23573f276165c64736f6c63430008180033","linkReferences":{}},"methodIdentifiers":{"getBlockHash(uint256)":"ee82ac5e","getLatestBlockHeight()":"e875aa5d","getLatestBlockTime()":"32c25832","getTarget(bytes32)":"a9c2d7ab","isTestnet()":"92108c86","longestReorg()":"76e92c84","periodToTarget(uint256)":"0d2b2860","submit(uint256,bytes)":"d1a2eab2"},"id":8}