{"abi":[{"type":"constructor","inputs":[{"name":"_mirror","type":"address","internalType":"contract IBtcMirror"}],"stateMutability":"nonpayable"},{"type":"function","name":"mirror","inputs":[],"outputs":[{"name":"","type":"address","internalType":"contract IBtcMirror"}],"stateMutability":"view"},{"type":"function","name":"verifyPayment","inputs":[{"name":"minConfirmations","type":"uint256","internalType":"uint256"},{"name":"blockNum","type":"uint256","internalType":"uint256"},{"name":"inclusionProof","type":"tuple","internalType":"struct BtcTxProof","components":[{"name":"blockHeader","type":"bytes","internalType":"bytes"},{"name":"txId","type":"bytes32","internalType":"bytes32"},{"name":"txIndex","type":"uint256","internalType":"uint256"},{"name":"txMerkleProof","type":"bytes","internalType":"bytes"},{"name":"rawTx","type":"bytes","internalType":"bytes"}]},{"name":"txOutIx","type":"uint256","internalType":"uint256"},{"name":"destScriptHash","type":"bytes20","internalType":"bytes20"},{"name":"amountSats","type":"uint256","internalType":"uint256"}],"outputs":[{"name":"","type":"bool","internalType":"bool"}],"stateMutability":"view"}],"bytecode":{"object":"0x60a060405234801561001057600080fd5b5060405161136c38038061136c83398101604081905261002f91610040565b6001600160a01b0316608052610070565b60006020828403121561005257600080fd5b81516001600160a01b038116811461006957600080fd5b9392505050565b6080516112d56100976000396000818160680152818160a7015261021d01526112d56000f3fe608060405234801561001057600080fd5b50600436106100365760003560e01c80630d295aea1461003b578063444d917214610063575b600080fd5b61004e610049366004610fcd565b6100a2565b60405190151581526020015b60405180910390f35b61008a7f000000000000000000000000000000000000000000000000000000000000000081565b6040516001600160a01b03909116815260200161005a565b6000807f00000000000000000000000000000000000000000000000000000000000000006001600160a01b031663e875aa5d6040518163ffffffff1660e01b8152600401602060405180830381865afa158015610103573d6000803e3d6000fd5b505050506040513d601f19601f820116820180604052508101906101279190611056565b9050868110156101915760405162461bcd60e51b815260206004820152602a60248201527f426974636f696e204d6972726f7220646f65736e27742068617665207468617460448201526908189b1bd8dac81e595d60b21b60648201526084015b60405180910390fd5b61019b8789611085565b6101a6826001611085565b10156102035760405162461bcd60e51b815260206004820152602660248201527f4e6f7420656e6f75676820426974636f696e20626c6f636b20636f6e6669726d6044820152656174696f6e7360d01b6064820152608401610188565b50604051637741562f60e11b8152600481018790526000907f00000000000000000000000000000000000000000000000000000000000000006001600160a01b03169063ee82ac5e90602401602060405180830381865afa15801561026c573d6000803e3d6000fd5b505050506040513d601f19601f820116820180604052508101906102909190611056565b905061029f81878787876102f9565b6102eb5760405162461bcd60e51b815260206004820152601960248201527f496e76616c6964207472616e73616374696f6e2070726f6f66000000000000006044820152606401610188565b506001979650505050505050565b60008561030e6103098780611098565b610538565b146103515760405162461bcd60e51b8152602060048201526013602482015272084d8dec6d640d0c2e6d040dad2e6dac2e8c6d606b1b6044820152606401610188565b60006103656103608780611098565b61061d565b905060006103886020880135604089013561038360608b018b611098565b61064a565b90508082146103d95760405162461bcd60e51b815260206004820152601760248201527f5478206d65726b6c6520726f6f74206d69736d617463680000000000000000006044820152606401610188565b60208701356103f36103ee60808a018a611098565b610730565b146104315760405162461bcd60e51b815260206004820152600e60248201526d0a8f040928840dad2e6dac2e8c6d60931b6044820152606401610188565b600061044861044360808a018a611098565b610772565b9050600081606001518881518110610462576104626110e6565b602002602001015190506000610486826020015163ffffffff168360400151610c27565b90506001600160601b0319888116908216146104db5760405162461bcd60e51b81526020600482015260146024820152730a6c6e4d2e0e840d0c2e6d040dad2e6dac2e8c6d60631b6044820152606401610188565b815167ffffffffffffffff1687146105275760405162461bcd60e51b815260206004820152600f60248201526e082dadeeadce840dad2e6dac2e8c6d608b1b6044820152606401610188565b5060019a9950505050505050505050565b60006050821461054757600080fd5b6000600280858560405161055c9291906110fc565b602060405180830381855afa158015610579573d6000803e3d6000fd5b5050506040513d601f19601f8201168201806040525081019061059c9190611056565b6040516020016105ae91815260200190565b60408051601f19818403018152908290526105c89161110c565b602060405180830381855afa1580156105e5573d6000803e3d6000fd5b5050506040513d601f19601f820116820180604052508101906106089190611056565b905061061381610cb2565b9150505b92915050565b60006050821461062c57600080fd5b61063a60446024848661113b565b61064391611165565b9392505050565b60008061065686610cb2565b90506000610665602085611183565b905060005b818110156107245760006106b687876106848560206111a5565b90610690866001611085565b61069b9060206111a5565b926106a89392919061113b565b6106b191611165565b610cb2565b9050600188166000036106f75760408051602081018690529081018290526106f0906060015b604051602081830303815290604052610df0565b9350610717565b6040805160208101839052908101859052610714906060016106dc565b93505b50600196871c960161066a565b50909695505050505050565b60008061060884848080601f016020809104026020016040519081016040528093929190818152602001838380828437600092019190915250610df092505050565b6107b26040518060a00160405280600015158152602001600063ffffffff1681526020016060815260200160608152602001600063ffffffff1681525090565b6107f26107c360046000858761113b565b6107cc916111bc565b60d881901c63ff00ff001662ff00ff60e89290921c9190911617601081811b91901c1790565b63ffffffff16602082018190526001118061081757506002816020015163ffffffff16115b610617576004600061082a858584610eaf565b925090508067ffffffffffffffff811115610847576108476111ec565b6040519080825280602002602001820160405280156108a057816020015b6040805160a0810182526000808252602080830182905292820181905260608201819052608082015282526000199092019101816108655790505b50604084015260005b818110156109f9576040805160a0810182526000808252602082018190529181018290526060810182905260808101919091526108ed87858861069b826020611085565b81526108fa602085611085565b935061091a87858861090d826004611085565b926107c39392919061113b565b63ffffffff166020820152610930600485611085565b9350600061093f888887610eaf565b9550905060208111156109645760405162461bcd60e51b815260040161018890611202565b63ffffffff8116606083015287858861097d8483611085565b9261098a9392919061113b565b61099391611165565b60808301526109a28186611085565b94506109b588868961090d826004611085565b63ffffffff1660408301526109cb600486611085565b945081866040015184815181106109e4576109e46110e6565b602090810291909101015250506001016108a9565b506000610a07868685610eaf565b935090508067ffffffffffffffff811115610a2457610a246111ec565b604051908082528060200260200182016040528015610a6f57816020015b6040805160608101825260008082526020808301829052928201528252600019909201910181610a425790505b50606085015260005b81811015610be1576040805160608101825260008082526020820181905291810191909152610b2a888689610aae826008611085565b92610abb9392919061113b565b610ac491611243565b60c01c65ff000000ff00600882811b91821664ff000000ff9390911c92831617601090811b67ff000000ff0000009290921666ff000000ff0000939093169290921790911c17602081811b6bffffffffffffffff000000001691901c63ffffffff161790565b67ffffffffffffffff168152610b41600886611085565b94506000610b50898988610eaf565b965090506020811115610b755760405162461bcd60e51b815260040161018890611202565b63ffffffff81166020830152888689610b8e8483611085565b92610b9b9392919061113b565b610ba491611165565b6040830152610bb38187611085565b95508187606001518481518110610bcc57610bcc6110e6565b60209081029190910101525050600101610a78565b50610bf386848761090d826004611085565b63ffffffff166080850152610c09600484611085565b9250848314610c1a57505050610617565b5050600182525092915050565b600082601714610c3957506000610617565b60a960f81b6001600160f81b0319600084901a60f81b16141580610c725750600560fa1b6001600160f81b0319600184901a60f81b1614155b80610c925750608760f81b6001600160f81b0319601684901a60f81b1614155b15610c9f57506000610617565b5060101b6001600160601b031916919050565b7bffffffff000000000000000000000000ffffffff00000000000000007eff000000ff000000ff000000ff000000ff000000ff000000ff000000ff0000600883811c9182167fff000000ff000000ff000000ff000000ff000000ff000000ff000000ff0000009490911b93841617601090811c7cff000000ff000000ff000000ff000000ff000000ff000000ff000000ff9092167dff000000ff000000ff000000ff000000ff000000ff000000ff000000ff009094169390931790921b91909117602081811c9283167fffffffff000000000000000000000000ffffffff0000000000000000000000009290911b91821617604090811c73ffffffff000000000000000000000000ffffffff90931677ffffffff000000000000000000000000ffffffff0000000090921691909117901b17608081811c91901b1790565b600060028083604051610e03919061110c565b602060405180830381855afa158015610e20573d6000803e3d6000fd5b5050506040513d601f19601f82011682018060405250810190610e439190611056565b604051602001610e5591815260200190565b60408051601f1981840301815290829052610e6f9161110c565b602060405180830381855afa158015610e8c573d6000803e3d6000fd5b5050506040513d601f19601f820116820180604052508101906106179190611056565b6000806000858585818110610ec657610ec66110e6565b919091013560f81c91505060fd811015610ef25760ff81169250610eeb846001611085565b9150610fc4565b8060ff1660fd03610f5457610f438686610f0d876001611085565b90610f19886003611085565b92610f269392919061113b565b610f2f91611271565b60e881901c62ffff001660f89190911c1790565b61ffff169250610eeb846003611085565b8060ff1660fe03610f8e57610f7b8686610f6f876001611085565b9061090d886005611085565b63ffffffff169250610eeb846005611085565b610faa8686610f9e876001611085565b90610aae886009611085565b67ffffffffffffffff169250610fc1846009611085565b91505b50935093915050565b60008060008060008060c08789031215610fe657600080fd5b8635955060208701359450604087013567ffffffffffffffff81111561100b57600080fd5b870160a0818a03121561101d57600080fd5b93506060870135925060808701356001600160601b03198116811461104157600080fd5b8092505060a087013590509295509295509295565b60006020828403121561106857600080fd5b5051919050565b634e487b7160e01b600052601160045260246000fd5b808201808211156106175761061761106f565b6000808335601e198436030181126110af57600080fd5b83018035915067ffffffffffffffff8211156110ca57600080fd5b6020019150368190038213156110df57600080fd5b9250929050565b634e487b7160e01b600052603260045260246000fd5b8183823760009101908152919050565b6000825160005b8181101561112d5760208186018101518583015201611113565b506000920191825250919050565b6000808585111561114b57600080fd5b8386111561115857600080fd5b5050820193919092039150565b8035602083101561061757600019602084900360031b1b1692915050565b6000826111a057634e487b7160e01b600052601260045260246000fd5b500490565b80820281158282048414176106175761061761106f565b6001600160e01b031981358181169160048510156111e45780818660040360031b1b83161692505b505092915050565b634e487b7160e01b600052604160045260246000fd5b60208082526021908201527f53637269707473206f76657220333220627974657320756e737570706f7274656040820152601960fa1b606082015260800190565b6001600160c01b031981358181169160088510156111e45760089490940360031b84901b1690921692915050565b6001600160f01b031981358181169160028510156111e45760029490940360031b84901b169092169291505056fea2646970667358221220a2454ccdf3378a9012d9928e99fdd0e789fcd016c473d1165e7d6e1203c275d164736f6c63430008180033","linkReferences":{}},"methodIdentifiers":{"mirror()":"444d9172","verifyPayment(uint256,uint256,(bytes,bytes32,uint256,bytes,bytes),uint256,bytes20,uint256)":"0d295aea"},"id":10}